{
  "_format": "hh-sol-artifact-1",
  "contractName": "MyAutoTrader",
  "sourceName": "contracts/MyAutoTrader.sol",
  "abi": [
    {
      "inputs": [
        {
          "internalType": "address",
          "name": "_priceFeed",
          "type": "address"
        },
        {
          "internalType": "address",
          "name": "_usdc",
          "type": "address"
        },
        {
          "internalType": "address",
          "name": "_weth",
          "type": "address"
        }
      ],
      "stateMutability": "nonpayable",
      "type": "constructor"
    },
    {
      "inputs": [
        {
          "internalType": "address",
          "name": "sender",
          "type": "address"
        },
        {
          "internalType": "uint256",
          "name": "tokenId",
          "type": "uint256"
        },
        {
          "internalType": "address",
          "name": "owner",
          "type": "address"
        }
      ],
      "name": "ERC721IncorrectOwner",
      "type": "error"
    },
    {
      "inputs": [
        {
          "internalType": "address",
          "name": "operator",
          "type": "address"
        },
        {
          "internalType": "uint256",
          "name": "tokenId",
          "type": "uint256"
        }
      ],
      "name": "ERC721InsufficientApproval",
      "type": "error"
    },
    {
      "inputs": [
        {
          "internalType": "address",
          "name": "approver",
          "type": "address"
        }
      ],
      "name": "ERC721InvalidApprover",
      "type": "error"
    },
    {
      "inputs": [
        {
          "internalType": "address",
          "name": "operator",
          "type": "address"
        }
      ],
      "name": "ERC721InvalidOperator",
      "type": "error"
    },
    {
      "inputs": [
        {
          "internalType": "address",
          "name": "owner",
          "type": "address"
        }
      ],
      "name": "ERC721InvalidOwner",
      "type": "error"
    },
    {
      "inputs": [
        {
          "internalType": "address",
          "name": "receiver",
          "type": "address"
        }
      ],
      "name": "ERC721InvalidReceiver",
      "type": "error"
    },
    {
      "inputs": [
        {
          "internalType": "address",
          "name": "sender",
          "type": "address"
        }
      ],
      "name": "ERC721InvalidSender",
      "type": "error"
    },
    {
      "inputs": [
        {
          "internalType": "uint256",
          "name": "tokenId",
          "type": "uint256"
        }
      ],
      "name": "ERC721NonexistentToken",
      "type": "error"
    },
    {
      "inputs": [
        {
          "internalType": "address",
          "name": "owner",
          "type": "address"
        }
      ],
      "name": "OwnableInvalidOwner",
      "type": "error"
    },
    {
      "inputs": [
        {
          "internalType": "address",
          "name": "account",
          "type": "address"
        }
      ],
      "name": "OwnableUnauthorizedAccount",
      "type": "error"
    },
    {
      "anonymous": false,
      "inputs": [
        {
          "indexed": true,
          "internalType": "address",
          "name": "owner",
          "type": "address"
        },
        {
          "indexed": true,
          "internalType": "address",
          "name": "approved",
          "type": "address"
        },
        {
          "indexed": true,
          "internalType": "uint256",
          "name": "tokenId",
          "type": "uint256"
        }
      ],
      "name": "Approval",
      "type": "event"
    },
    {
      "anonymous": false,
      "inputs": [
        {
          "indexed": true,
          "internalType": "address",
          "name": "owner",
          "type": "address"
        },
        {
          "indexed": true,
          "internalType": "address",
          "name": "operator",
          "type": "address"
        },
        {
          "indexed": false,
          "internalType": "bool",
          "name": "approved",
          "type": "bool"
        }
      ],
      "name": "ApprovalForAll",
      "type": "event"
    },
    {
      "anonymous": false,
      "inputs": [
        {
          "indexed": true,
          "internalType": "uint256",
          "name": "tokenId",
          "type": "uint256"
        },
        {
          "indexed": false,
          "internalType": "uint256",
          "name": "fee",
          "type": "uint256"
        },
        {
          "indexed": true,
          "internalType": "address",
          "name": "user",
          "type": "address"
        }
      ],
      "name": "FeeCollected",
      "type": "event"
    },
    {
      "anonymous": false,
      "inputs": [
        {
          "indexed": true,
          "internalType": "uint256",
          "name": "tokenId",
          "type": "uint256"
        },
        {
          "indexed": false,
          "internalType": "uint256",
          "name": "amount",
          "type": "uint256"
        },
        {
          "indexed": true,
          "internalType": "address",
          "name": "to",
          "type": "address"
        }
      ],
      "name": "FundsWithdrawn",
      "type": "event"
    },
    {
      "anonymous": false,
      "inputs": [
        {
          "indexed": true,
          "internalType": "address",
          "name": "previousOwner",
          "type": "address"
        },
        {
          "indexed": true,
          "internalType": "address",
          "name": "newOwner",
          "type": "address"
        }
      ],
      "name": "OwnershipTransferred",
      "type": "event"
    },
    {
      "anonymous": false,
      "inputs": [
        {
          "indexed": true,
          "internalType": "uint256",
          "name": "tokenId",
          "type": "uint256"
        },
        {
          "indexed": true,
          "internalType": "address",
          "name": "owner",
          "type": "address"
        },
        {
          "indexed": false,
          "internalType": "uint256",
          "name": "amount",
          "type": "uint256"
        }
      ],
      "name": "StrategyCreated",
      "type": "event"
    },
    {
      "anonymous": false,
      "inputs": [
        {
          "indexed": true,
          "internalType": "uint256",
          "name": "tokenId",
          "type": "uint256"
        }
      ],
      "name": "StrategyDeactivated",
      "type": "event"
    },
    {
      "anonymous": false,
      "inputs": [
        {
          "indexed": true,
          "internalType": "uint256",
          "name": "tokenId",
          "type": "uint256"
        },
        {
          "indexed": false,
          "internalType": "string",
          "name": "action",
          "type": "string"
        },
        {
          "indexed": false,
          "internalType": "uint256",
          "name": "price",
          "type": "uint256"
        }
      ],
      "name": "StrategyExecuted",
      "type": "event"
    },
    {
      "anonymous": false,
      "inputs": [
        {
          "indexed": true,
          "internalType": "uint256",
          "name": "tokenId",
          "type": "uint256"
        },
        {
          "indexed": true,
          "internalType": "address",
          "name": "from",
          "type": "address"
        },
        {
          "indexed": true,
          "internalType": "address",
          "name": "to",
          "type": "address"
        }
      ],
      "name": "StrategyTransferred",
      "type": "event"
    },
    {
      "anonymous": false,
      "inputs": [
        {
          "indexed": true,
          "internalType": "address",
          "name": "from",
          "type": "address"
        },
        {
          "indexed": true,
          "internalType": "address",
          "name": "to",
          "type": "address"
        },
        {
          "indexed": true,
          "internalType": "uint256",
          "name": "tokenId",
          "type": "uint256"
        }
      ],
      "name": "Transfer",
      "type": "event"
    },
    {
      "inputs": [],
      "name": "IS_SIMULATION",
      "outputs": [
        {
          "internalType": "bool",
          "name": "",
          "type": "bool"
        }
      ],
      "stateMutability": "view",
      "type": "function"
    },
    {
      "inputs": [],
      "name": "PERFORMANCE_FEE",
      "outputs": [
        {
          "internalType": "uint256",
          "name": "",
          "type": "uint256"
        }
      ],
      "stateMutability": "view",
      "type": "function"
    },
    {
      "inputs": [
        {
          "internalType": "address",
          "name": "to",
          "type": "address"
        },
        {
          "internalType": "uint256",
          "name": "tokenId",
          "type": "uint256"
        }
      ],
      "name": "approve",
      "outputs": [],
      "stateMutability": "nonpayable",
      "type": "function"
    },
    {
      "inputs": [
        {
          "internalType": "address",
          "name": "owner",
          "type": "address"
        }
      ],
      "name": "balanceOf",
      "outputs": [
        {
          "internalType": "uint256",
          "name": "",
          "type": "uint256"
        }
      ],
      "stateMutability": "view",
      "type": "function"
    },
    {
      "inputs": [
        {
          "internalType": "uint256",
          "name": "tokenId",
          "type": "uint256"
        },
        {
          "internalType": "uint256",
          "name": "_amount",
          "type": "uint256"
        }
      ],
      "name": "copyStrategy",
      "outputs": [],
      "stateMutability": "nonpayable",
      "type": "function"
    },
    {
      "inputs": [
        {
          "internalType": "uint256",
          "name": "_buyPrice",
          "type": "uint256"
        },
        {
          "internalType": "uint256",
          "name": "_sellPrice",
          "type": "uint256"
        },
        {
          "internalType": "uint256",
          "name": "_stopLoss",
          "type": "uint256"
        },
        {
          "internalType": "uint256",
          "name": "_amount",
          "type": "uint256"
        }
      ],
      "name": "createStrategy",
      "outputs": [],
      "stateMutability": "nonpayable",
      "type": "function"
    },
    {
      "inputs": [
        {
          "internalType": "uint256",
          "name": "tokenId",
          "type": "uint256"
        }
      ],
      "name": "deactivateStrategy",
      "outputs": [],
      "stateMutability": "nonpayable",
      "type": "function"
    },
    {
      "inputs": [],
      "name": "executeAllStrategies",
      "outputs": [],
      "stateMutability": "nonpayable",
      "type": "function"
    },
    {
      "inputs": [
        {
          "internalType": "uint256",
          "name": "tokenId",
          "type": "uint256"
        }
      ],
      "name": "executeStrategy",
      "outputs": [],
      "stateMutability": "nonpayable",
      "type": "function"
    },
    {
      "inputs": [],
      "name": "executor",
      "outputs": [
        {
          "internalType": "address",
          "name": "",
          "type": "address"
        }
      ],
      "stateMutability": "view",
      "type": "function"
    },
    {
      "inputs": [
        {
          "internalType": "uint256",
          "name": "tokenId",
          "type": "uint256"
        }
      ],
      "name": "getApproved",
      "outputs": [
        {
          "internalType": "address",
          "name": "",
          "type": "address"
        }
      ],
      "stateMutability": "view",
      "type": "function"
    },
    {
      "inputs": [],
      "name": "getLatestPrice",
      "outputs": [
        {
          "internalType": "uint256",
          "name": "",
          "type": "uint256"
        }
      ],
      "stateMutability": "view",
      "type": "function"
    },
    {
      "inputs": [
        {
          "internalType": "address",
          "name": "user",
          "type": "address"
        }
      ],
      "name": "getMyStrategies",
      "outputs": [
        {
          "internalType": "uint256[]",
          "name": "",
          "type": "uint256[]"
        }
      ],
      "stateMutability": "view",
      "type": "function"
    },
    {
      "inputs": [
        {
          "internalType": "uint256",
          "name": "tokenId",
          "type": "uint256"
        }
      ],
      "name": "getStrategy",
      "outputs": [
        {
          "components": [
            {
              "internalType": "uint256",
              "name": "id",
              "type": "uint256"
            },
            {
              "internalType": "uint256",
              "name": "amountDeposited",
              "type": "uint256"
            },
            {
              "internalType": "uint256",
              "name": "buyPrice",
              "type": "uint256"
            },
            {
              "internalType": "uint256",
              "name": "sellPrice",
              "type": "uint256"
            },
            {
              "internalType": "uint256",
              "name": "stopLossPrice",
              "type": "uint256"
            },
            {
              "internalType": "bool",
              "name": "isInvested",
              "type": "bool"
            },
            {
              "internalType": "bool",
              "name": "isActive",
              "type": "bool"
            },
            {
              "internalType": "uint256",
              "name": "entryPrice",
              "type": "uint256"
            },
            {
              "internalType": "uint256",
              "name": "exitPrice",
              "type": "uint256"
            },
            {
              "internalType": "int256",
              "name": "pnl",
              "type": "int256"
            },
            {
              "internalType": "uint256",
              "name": "feesPaid",
              "type": "uint256"
            }
          ],
          "internalType": "struct MyAutoTrader.Strategy",
          "name": "",
          "type": "tuple"
        }
      ],
      "stateMutability": "view",
      "type": "function"
    },
    {
      "inputs": [
        {
          "internalType": "address",
          "name": "owner",
          "type": "address"
        },
        {
          "internalType": "address",
          "name": "operator",
          "type": "address"
        }
      ],
      "name": "isApprovedForAll",
      "outputs": [
        {
          "internalType": "bool",
          "name": "",
          "type": "bool"
        }
      ],
      "stateMutability": "view",
      "type": "function"
    },
    {
      "inputs": [],
      "name": "name",
      "outputs": [
        {
          "internalType": "string",
          "name": "",
          "type": "string"
        }
      ],
      "stateMutability": "view",
      "type": "function"
    },
    {
      "inputs": [],
      "name": "nextTokenId",
      "outputs": [
        {
          "internalType": "uint256",
          "name": "",
          "type": "uint256"
        }
      ],
      "stateMutability": "view",
      "type": "function"
    },
    {
      "inputs": [],
      "name": "owner",
      "outputs": [
        {
          "internalType": "address",
          "name": "",
          "type": "address"
        }
      ],
      "stateMutability": "view",
      "type": "function"
    },
    {
      "inputs": [
        {
          "internalType": "uint256",
          "name": "tokenId",
          "type": "uint256"
        }
      ],
      "name": "ownerOf",
      "outputs": [
        {
          "internalType": "address",
          "name": "",
          "type": "address"
        }
      ],
      "stateMutability": "view",
      "type": "function"
    },
    {
      "inputs": [],
      "name": "renounceOwnership",
      "outputs": [],
      "stateMutability": "nonpayable",
      "type": "function"
    },
    {
      "inputs": [
        {
          "internalType": "address",
          "name": "from",
          "type": "address"
        },
        {
          "internalType": "address",
          "name": "to",
          "type": "address"
        },
        {
          "internalType": "uint256",
          "name": "tokenId",
          "type": "uint256"
        }
      ],
      "name": "safeTransferFrom",
      "outputs": [],
      "stateMutability": "nonpayable",
      "type": "function"
    },
    {
      "inputs": [
        {
          "internalType": "address",
          "name": "from",
          "type": "address"
        },
        {
          "internalType": "address",
          "name": "to",
          "type": "address"
        },
        {
          "internalType": "uint256",
          "name": "tokenId",
          "type": "uint256"
        },
        {
          "internalType": "bytes",
          "name": "data",
          "type": "bytes"
        }
      ],
      "name": "safeTransferFrom",
      "outputs": [],
      "stateMutability": "nonpayable",
      "type": "function"
    },
    {
      "inputs": [
        {
          "internalType": "address",
          "name": "operator",
          "type": "address"
        },
        {
          "internalType": "bool",
          "name": "approved",
          "type": "bool"
        }
      ],
      "name": "setApprovalForAll",
      "outputs": [],
      "stateMutability": "nonpayable",
      "type": "function"
    },
    {
      "inputs": [
        {
          "internalType": "address",
          "name": "_executor",
          "type": "address"
        }
      ],
      "name": "setExecutor",
      "outputs": [],
      "stateMutability": "nonpayable",
      "type": "function"
    },
    {
      "inputs": [
        {
          "internalType": "uint256",
          "name": "",
          "type": "uint256"
        }
      ],
      "name": "strategies",
      "outputs": [
        {
          "internalType": "uint256",
          "name": "id",
          "type": "uint256"
        },
        {
          "internalType": "uint256",
          "name": "amountDeposited",
          "type": "uint256"
        },
        {
          "internalType": "uint256",
          "name": "buyPrice",
          "type": "uint256"
        },
        {
          "internalType": "uint256",
          "name": "sellPrice",
          "type": "uint256"
        },
        {
          "internalType": "uint256",
          "name": "stopLossPrice",
          "type": "uint256"
        },
        {
          "internalType": "bool",
          "name": "isInvested",
          "type": "bool"
        },
        {
          "internalType": "bool",
          "name": "isActive",
          "type": "bool"
        },
        {
          "internalType": "uint256",
          "name": "entryPrice",
          "type": "uint256"
        },
        {
          "internalType": "uint256",
          "name": "exitPrice",
          "type": "uint256"
        },
        {
          "internalType": "int256",
          "name": "pnl",
          "type": "int256"
        },
        {
          "internalType": "uint256",
          "name": "feesPaid",
          "type": "uint256"
        }
      ],
      "stateMutability": "view",
      "type": "function"
    },
    {
      "inputs": [
        {
          "internalType": "bytes4",
          "name": "interfaceId",
          "type": "bytes4"
        }
      ],
      "name": "supportsInterface",
      "outputs": [
        {
          "internalType": "bool",
          "name": "",
          "type": "bool"
        }
      ],
      "stateMutability": "view",
      "type": "function"
    },
    {
      "inputs": [],
      "name": "symbol",
      "outputs": [
        {
          "internalType": "string",
          "name": "",
          "type": "string"
        }
      ],
      "stateMutability": "view",
      "type": "function"
    },
    {
      "inputs": [
        {
          "internalType": "uint256",
          "name": "tokenId",
          "type": "uint256"
        }
      ],
      "name": "tokenURI",
      "outputs": [
        {
          "internalType": "string",
          "name": "",
          "type": "string"
        }
      ],
      "stateMutability": "view",
      "type": "function"
    },
    {
      "inputs": [
        {
          "internalType": "address",
          "name": "from",
          "type": "address"
        },
        {
          "internalType": "address",
          "name": "to",
          "type": "address"
        },
        {
          "internalType": "uint256",
          "name": "tokenId",
          "type": "uint256"
        }
      ],
      "name": "transferFrom",
      "outputs": [],
      "stateMutability": "nonpayable",
      "type": "function"
    },
    {
      "inputs": [
        {
          "internalType": "address",
          "name": "newOwner",
          "type": "address"
        }
      ],
      "name": "transferOwnership",
      "outputs": [],
      "stateMutability": "nonpayable",
      "type": "function"
    },
    {
      "inputs": [],
      "name": "usdcToken",
      "outputs": [
        {
          "internalType": "contract IERC20",
          "name": "",
          "type": "address"
        }
      ],
      "stateMutability": "view",
      "type": "function"
    },
    {
      "inputs": [],
      "name": "wethToken",
      "outputs": [
        {
          "internalType": "contract IERC20",
          "name": "",
          "type": "address"
        }
      ],
      "stateMutability": "view",
      "type": "function"
    },
    {
      "inputs": [
        {
          "internalType": "uint256",
          "name": "tokenId",
          "type": "uint256"
        }
      ],
      "name": "withdraw",
      "outputs": [],
      "stateMutability": "nonpayable",
      "type": "function"
    }
  ],
  "bytecode": "0x60806040523480156200001157600080fd5b50604051620052a2380380620052a283398181016040528101906200003791906200038e565b336040518060400160405280601281526020017f4175746f547261646572537472617465677900000000000000000000000000008152506040518060400160405280600381526020017f41545300000000000000000000000000000000000000000000000000000000008152508160009081620000b5919062000664565b508060019081620000c7919062000664565b505050600073ffffffffffffffffffffffffffffffffffffffff168173ffffffffffffffffffffffffffffffffffffffff16036200013f5760006040517f1e4fbdf70000000000000000000000000000000000000000000000000000000081526004016200013691906200075c565b60405180910390fd5b62000150816200025e60201b60201c565b5082600960006101000a81548173ffffffffffffffffffffffffffffffffffffffff021916908373ffffffffffffffffffffffffffffffffffffffff16021790555081600a60006101000a81548173ffffffffffffffffffffffffffffffffffffffff021916908373ffffffffffffffffffffffffffffffffffffffff16021790555080600b60006101000a81548173ffffffffffffffffffffffffffffffffffffffff021916908373ffffffffffffffffffffffffffffffffffffffff16021790555033600860006101000a81548173ffffffffffffffffffffffffffffffffffffffff021916908373ffffffffffffffffffffffffffffffffffffffff16021790555050505062000779565b6000600660009054906101000a900473ffffffffffffffffffffffffffffffffffffffff16905081600660006101000a81548173ffffffffffffffffffffffffffffffffffffffff021916908373ffffffffffffffffffffffffffffffffffffffff1602179055508173ffffffffffffffffffffffffffffffffffffffff168173ffffffffffffffffffffffffffffffffffffffff167f8be0079c531659141344cd1fd0a4f28419497f9722a3daafe3b4186f6b6457e060405160405180910390a35050565b600080fd5b600073ffffffffffffffffffffffffffffffffffffffff82169050919050565b6000620003568262000329565b9050919050565b620003688162000349565b81146200037457600080fd5b50565b60008151905062000388816200035d565b92915050565b600080600060608486031215620003aa57620003a962000324565b5b6000620003ba8682870162000377565b9350506020620003cd8682870162000377565b9250506040620003e08682870162000377565b9150509250925092565b600081519050919050565b7f4e487b7100000000000000000000000000000000000000000000000000000000600052604160045260246000fd5b7f4e487b7100000000000000000000000000000000000000000000000000000000600052602260045260246000fd5b600060028204905060018216806200046c57607f821691505b60208210810362000482576200048162000424565b5b50919050565b60008190508160005260206000209050919050565b60006020601f8301049050919050565b600082821b905092915050565b600060088302620004ec7fffffffffffffffffffffffffffffffffffffffffffffffffffffffffffffffff82620004ad565b620004f88683620004ad565b95508019841693508086168417925050509392505050565b6000819050919050565b6000819050919050565b6000620005456200053f620005398462000510565b6200051a565b62000510565b9050919050565b6000819050919050565b620005618362000524565b6200057962000570826200054c565b848454620004ba565b825550505050565b600090565b6200059062000581565b6200059d81848462000556565b505050565b5b81811015620005c557620005b960008262000586565b600181019050620005a3565b5050565b601f8211156200061457620005de8162000488565b620005e9846200049d565b81016020851015620005f9578190505b6200061162000608856200049d565b830182620005a2565b50505b505050565b600082821c905092915050565b6000620006396000198460080262000619565b1980831691505092915050565b600062000654838362000626565b9150826002028217905092915050565b6200066f82620003ea565b67ffffffffffffffff8111156200068b576200068a620003f5565b5b62000697825462000453565b620006a4828285620005c9565b600060209050601f831160018114620006dc5760008415620006c7578287015190505b620006d3858262000646565b86555062000743565b601f198416620006ec8662000488565b60005b828110156200071657848901518255600182019150602085019450602081019050620006ef565b8683101562000736578489015162000732601f89168262000626565b8355505b6001600288020188555050505b505050505050565b620007568162000349565b82525050565b60006020820190506200077360008301846200074b565b92915050565b614b1980620007896000396000f3fe608060405234801561001057600080fd5b50600436106101fb5760003560e01c806371827a7b1161011a578063b88d4fde116100ad578063d574ea3d1161007c578063d574ea3d1461058a578063e2b94fc5146105c4578063e93f5665146105e0578063e985e9c5146105fe578063f2fde38b1461062e576101fb565b8063b88d4fde146104f0578063c34c08e51461050c578063c87b56dd1461052a578063cfc0cc341461055a576101fb565b80638e15f473116100e95780638e15f4731461047c57806395d89b411461049a578063a22cb465146104b8578063b13d52b1146104d4576101fb565b806371827a7b1461041a57806375794a3c14610424578063887a2f72146104425780638da5cb5b1461045e576101fb565b8063288ce54e116101925780634b57b0be116101615780634b57b0be146103925780636352211e146103b057806370a08231146103e0578063715018a614610410576101fb565b8063288ce54e1461030e5780632e1a7d4d1461033e57806342842e0e1461035a578063456f948b14610376576101fb565b80630a3e16ed116101ce5780630a3e16ed1461029a57806311eac855146102b85780631c3c0ea8146102d657806323b872dd146102f2576101fb565b806301ffc9a71461020057806306fdde0314610230578063081812fc1461024e578063095ea7b31461027e575b600080fd5b61021a60048036038101906102159190613086565b61064a565b60405161022791906130ce565b60405180910390f35b61023861072c565b6040516102459190613179565b60405180910390f35b610268600480360381019061026391906131d1565b6107be565b604051610275919061323f565b60405180910390f35b61029860048036038101906102939190613286565b6107da565b005b6102a26107f0565b6040516102af91906130ce565b60405180910390f35b6102c06107f5565b6040516102cd9190613325565b60405180910390f35b6102f060048036038101906102eb9190613340565b61081b565b005b61030c6004803603810190610307919061336d565b610867565b005b61032860048036038101906103239190613340565b61093c565b604051610335919061347e565b60405180910390f35b610358600480360381019061035391906131d1565b610a31565b005b610374600480360381019061036f919061336d565b610c9d565b005b610390600480360381019061038b91906131d1565b610cbd565b005b61039a610e18565b6040516103a79190613325565b60405180910390f35b6103ca60048036038101906103c591906131d1565b610e3e565b6040516103d7919061323f565b60405180910390f35b6103fa60048036038101906103f59190613340565b610e50565b60405161040791906134af565b60405180910390f35b610418610f0a565b005b610422610f1e565b005b61042c611082565b60405161043991906134af565b60405180910390f35b61045c600480360381019061045791906131d1565b611088565b005b610466611185565b604051610473919061323f565b60405180910390f35b6104846111af565b60405161049191906134af565b60405180910390f35b6104a2611293565b6040516104af9190613179565b60405180910390f35b6104d260048036038101906104cd91906134f6565b611325565b005b6104ee60048036038101906104e99190613536565b61133b565b005b61050a600480360381019061050591906136ab565b6116a2565b005b6105146116c7565b604051610521919061323f565b60405180910390f35b610544600480360381019061053f91906131d1565b6116ed565b6040516105519190613179565b60405180910390f35b610574600480360381019061056f91906131d1565b61186a565b6040516105819190613837565b60405180910390f35b6105a4600480360381019061059f91906131d1565b61199f565b6040516105bb9b9a99989796959493929190613862565b60405180910390f35b6105de60048036038101906105d9919061390d565b611a13565b005b6105e8611d49565b6040516105f591906134af565b60405180910390f35b61061860048036038101906106139190613974565b611d4f565b60405161062591906130ce565b60405180910390f35b61064860048036038101906106439190613340565b611de3565b005b60007f80ac58cd000000000000000000000000000000000000000000000000000000007bffffffffffffffffffffffffffffffffffffffffffffffffffffffff1916827bffffffffffffffffffffffffffffffffffffffffffffffffffffffff1916148061071557507f5b5e139f000000000000000000000000000000000000000000000000000000007bffffffffffffffffffffffffffffffffffffffffffffffffffffffff1916827bffffffffffffffffffffffffffffffffffffffffffffffffffffffff1916145b80610725575061072482611e69565b5b9050919050565b60606000805461073b906139e3565b80601f0160208091040260200160405190810160405280929190818152602001828054610767906139e3565b80156107b45780601f10610789576101008083540402835291602001916107b4565b820191906000526020600020905b81548152906001019060200180831161079757829003601f168201915b5050505050905090565b60006107c982611ed3565b506107d382611f5b565b9050919050565b6107ec82826107e7611f98565b611fa0565b5050565b600181565b600a60009054906101000a900473ffffffffffffffffffffffffffffffffffffffff1681565b610823611fb2565b80600860006101000a81548173ffffffffffffffffffffffffffffffffffffffff021916908373ffffffffffffffffffffffffffffffffffffffff16021790555050565b6000600c600083815260200190815260200160002090508060050160009054906101000a900460ff16156108d0576040517f08c379a00000000000000000000000000000000000000000000000000000000081526004016108c790613a60565b60405180910390fd5b6108db848484612039565b8273ffffffffffffffffffffffffffffffffffffffff168473ffffffffffffffffffffffffffffffffffffffff16837ff28f3da639f209d6b549b36cddc1c1d3339ed589165b8282fade343f284294c060405160405180910390a450505050565b6060600061094983610e50565b905060008167ffffffffffffffff81111561096757610966613580565b5b6040519080825280602002602001820160405280156109955781602001602082028036833780820191505090505b509050600080600090505b600754811015610a25578573ffffffffffffffffffffffffffffffffffffffff166109ca8261213b565b73ffffffffffffffffffffffffffffffffffffffff1603610a1257808383806109f290613aaf565b945081518110610a0557610a04613af7565b5b6020026020010181815250505b8080610a1d90613aaf565b9150506109a0565b50819350505050919050565b3373ffffffffffffffffffffffffffffffffffffffff16610a5182610e3e565b73ffffffffffffffffffffffffffffffffffffffff1614610aa7576040517f08c379a0000000000000000000000000000000000000000000000000000000008152600401610a9e90613b72565b60405180910390fd5b6000600c600083815260200190815260200160002090508060050160019054906101000a900460ff1615610b10576040517f08c379a0000000000000000000000000000000000000000000000000000000008152600401610b0790613bde565b60405180910390fd5b6000816001015411610b57576040517f08c379a0000000000000000000000000000000000000000000000000000000008152600401610b4e90613c4a565b60405180910390fd5b60008160010154905060008260010181905550600a60009054906101000a900473ffffffffffffffffffffffffffffffffffffffff1673ffffffffffffffffffffffffffffffffffffffff1663a9059cbb33836040518363ffffffff1660e01b8152600401610bc7929190613c6a565b6020604051808303816000875af1158015610be6573d6000803e3d6000fd5b505050506040513d601f19601f82011682018060405250810190610c0a9190613ca8565b610c49576040517f08c379a0000000000000000000000000000000000000000000000000000000008152600401610c4090613d21565b60405180910390fd5b3373ffffffffffffffffffffffffffffffffffffffff16837ff3b5906e5672f3e524854103bcafbbdba80dbdfeca2c35e116127b1060a6831883604051610c9091906134af565b60405180910390a3505050565b610cb8838383604051806020016040528060008152506116a2565b505050565b3373ffffffffffffffffffffffffffffffffffffffff16610cdd82610e3e565b73ffffffffffffffffffffffffffffffffffffffff1614610d33576040517f08c379a0000000000000000000000000000000000000000000000000000000008152600401610d2a90613b72565b60405180910390fd5b6000600c600083815260200190815260200160002090508060050160019054906101000a900460ff16610d9b576040517f08c379a0000000000000000000000000000000000000000000000000000000008152600401610d9290613d8d565b60405180910390fd5b8060050160009054906101000a900460ff1615610dca576000610dbc6111af565b9050610dc88382612178565b505b60008160050160016101000a81548160ff021916908315150217905550817ff0158db7bc4baf411e9502a7e72c9cc72407d1a4c1f5c3cd6b5205d3ac4188d760405160405180910390a25050565b600b60009054906101000a900473ffffffffffffffffffffffffffffffffffffffff1681565b6000610e4982611ed3565b9050919050565b60008073ffffffffffffffffffffffffffffffffffffffff168273ffffffffffffffffffffffffffffffffffffffff1603610ec35760006040517f89c62b64000000000000000000000000000000000000000000000000000000008152600401610eba919061323f565b60405180910390fd5b600360008373ffffffffffffffffffffffffffffffffffffffff1673ffffffffffffffffffffffffffffffffffffffff168152602001908152602001600020549050919050565b610f12611fb2565b610f1c60006122de565b565b600860009054906101000a900473ffffffffffffffffffffffffffffffffffffffff1673ffffffffffffffffffffffffffffffffffffffff163373ffffffffffffffffffffffffffffffffffffffff161480610fac5750610f7d611185565b73ffffffffffffffffffffffffffffffffffffffff163373ffffffffffffffffffffffffffffffffffffffff16145b610feb576040517f08c379a0000000000000000000000000000000000000000000000000000000008152600401610fe290613df9565b60405180910390fd5b60005b60075481101561107f57600073ffffffffffffffffffffffffffffffffffffffff166110198261213b565b73ffffffffffffffffffffffffffffffffffffffff161415801561105d5750600c600082815260200190815260200160002060050160019054906101000a900460ff165b1561106c5761106b81611088565b5b808061107790613aaf565b915050610fee565b50565b60075481565b6000600c600083815260200190815260200160002090508060050160019054906101000a900460ff166110f0576040517f08c379a00000000000000000000000000000000000000000000000000000000081526004016110e790613e65565b60405180910390fd5b60006110fa6111af565b90508160050160009054906101000a900460ff1615801561111f575081600201548111155b1561112f5761112e83826123a4565b5b8160050160009054906101000a900460ff168015611170575081600301548110158061116f57506000826004015411801561116e575081600401548111155b5b5b156111805761117f8382612178565b5b505050565b6000600660009054906101000a900473ffffffffffffffffffffffffffffffffffffffff16905090565b600080600960009054906101000a900473ffffffffffffffffffffffffffffffffffffffff1673ffffffffffffffffffffffffffffffffffffffff1663feaf968c6040518163ffffffff1660e01b815260040160a060405180830381865afa15801561121f573d6000803e3d6000fd5b505050506040513d601f19601f820116820180604052508101906112439190613f08565b5050509150506000811361128c576040517f08c379a000000000000000000000000000000000000000000000000000000000815260040161128390613fcf565b60405180910390fd5b8091505090565b6060600180546112a2906139e3565b80601f01602080910402602001604051908101604052809291908181526020018280546112ce906139e3565b801561131b5780601f106112f05761010080835404028352916020019161131b565b820191906000526020600020905b8154815290600101906020018083116112fe57829003601f168201915b5050505050905090565b611337611330611f98565b838361241e565b5050565b6000600c60008481526020019081526020016000206040518061016001604052908160008201548152602001600182015481526020016002820154815260200160038201548152602001600482015481526020016005820160009054906101000a900460ff161515151581526020016005820160019054906101000a900460ff1615151515815260200160068201548152602001600782015481526020016008820154815260200160098201548152505090508060c00151611432576040517f08c379a00000000000000000000000000000000000000000000000000000000081526004016114299061403b565b60405180910390fd5b600a60009054906101000a900473ffffffffffffffffffffffffffffffffffffffff1673ffffffffffffffffffffffffffffffffffffffff166323b872dd3330856040518463ffffffff1660e01b81526004016114919392919061405b565b6020604051808303816000875af11580156114b0573d6000803e3d6000fd5b505050506040513d601f19601f820116820180604052508101906114d49190613ca8565b611513576040517f08c379a000000000000000000000000000000000000000000000000000000000815260040161150a906140de565b60405180910390fd5b60006007600081548092919061152890613aaf565b919050559050611538338261258d565b6040518061016001604052808281526020018481526020018360400151815260200183606001518152602001836080015181526020016000151581526020016001151581526020016000815260200160008152602001600081526020016000815250600c6000838152602001908152602001600020600082015181600001556020820151816001015560408201518160020155606082015181600301556080820151816004015560a08201518160050160006101000a81548160ff02191690831515021790555060c08201518160050160016101000a81548160ff02191690831515021790555060e082015181600601556101008201518160070155610120820151816008015561014082015181600901559050503373ffffffffffffffffffffffffffffffffffffffff16817f5b1528002dcb8f8553817ad8db62be3f1662015bdbde758868c4c792557b76948560405161169491906134af565b60405180910390a350505050565b6116ad848484610867565b6116c16116b8611f98565b85858585612686565b50505050565b600860009054906101000a900473ffffffffffffffffffffffffffffffffffffffff1681565b60606000600c60008481526020019081526020016000206040518061016001604052908160008201548152602001600182015481526020016002820154815260200160038201548152602001600482015481526020016005820160009054906101000a900460ff161515151581526020016005820160019054906101000a900460ff1615151515815260200160068201548152602001600782015481526020016008820154815260200160098201548152505090506117ab83612837565b6117b88260400151612837565b6117c58360600151612837565b8360c00151611809576040518060400160405280600581526020017f66616c7365000000000000000000000000000000000000000000000000000000815250611840565b6040518060400160405280600481526020017f74727565000000000000000000000000000000000000000000000000000000008152505b6040516020016118539493929190614516565b604051602081830303815290604052915050919050565b611872612fbc565b600073ffffffffffffffffffffffffffffffffffffffff166118938361213b565b73ffffffffffffffffffffffffffffffffffffffff16036118e9576040517f08c379a00000000000000000000000000000000000000000000000000000000081526004016118e090614624565b60405180910390fd5b600c60008381526020019081526020016000206040518061016001604052908160008201548152602001600182015481526020016002820154815260200160038201548152602001600482015481526020016005820160009054906101000a900460ff161515151581526020016005820160019054906101000a900460ff161515151581526020016006820154815260200160078201548152602001600882015481526020016009820154815250509050919050565b600c6020528060005260406000206000915090508060000154908060010154908060020154908060030154908060040154908060050160009054906101000a900460ff16908060050160019054906101000a900460ff1690806006015490806007015490806008015490806009015490508b565b60008411611a56576040517f08c379a0000000000000000000000000000000000000000000000000000000008152600401611a4d90614690565b60405180910390fd5b838311611a98576040517f08c379a0000000000000000000000000000000000000000000000000000000008152600401611a8f906146fc565b60405180910390fd5b6000821115611ae457838210611ae3576040517f08c379a0000000000000000000000000000000000000000000000000000000008152600401611ada90614768565b60405180910390fd5b5b600a60009054906101000a900473ffffffffffffffffffffffffffffffffffffffff1673ffffffffffffffffffffffffffffffffffffffff166323b872dd3330846040518463ffffffff1660e01b8152600401611b439392919061405b565b6020604051808303816000875af1158015611b62573d6000803e3d6000fd5b505050506040513d601f19601f82011682018060405250810190611b869190613ca8565b611bc5576040517f08c379a0000000000000000000000000000000000000000000000000000000008152600401611bbc906140de565b60405180910390fd5b600060076000815480929190611bda90613aaf565b919050559050611bea338261258d565b6040518061016001604052808281526020018381526020018681526020018581526020018481526020016000151581526020016001151581526020016000815260200160008152602001600081526020016000815250600c6000838152602001908152602001600020600082015181600001556020820151816001015560408201518160020155606082015181600301556080820151816004015560a08201518160050160006101000a81548160ff02191690831515021790555060c08201518160050160016101000a81548160ff02191690831515021790555060e082015181600601556101008201518160070155610120820151816008015561014082015181600901559050503373ffffffffffffffffffffffffffffffffffffffff16817f5b1528002dcb8f8553817ad8db62be3f1662015bdbde758868c4c792557b769484604051611d3a91906134af565b60405180910390a35050505050565b6101f481565b6000600560008473ffffffffffffffffffffffffffffffffffffffff1673ffffffffffffffffffffffffffffffffffffffff16815260200190815260200160002060008373ffffffffffffffffffffffffffffffffffffffff1673ffffffffffffffffffffffffffffffffffffffff16815260200190815260200160002060009054906101000a900460ff16905092915050565b611deb611fb2565b600073ffffffffffffffffffffffffffffffffffffffff168173ffffffffffffffffffffffffffffffffffffffff1603611e5d5760006040517f1e4fbdf7000000000000000000000000000000000000000000000000000000008152600401611e54919061323f565b60405180910390fd5b611e66816122de565b50565b60007f01ffc9a7000000000000000000000000000000000000000000000000000000007bffffffffffffffffffffffffffffffffffffffffffffffffffffffff1916827bffffffffffffffffffffffffffffffffffffffffffffffffffffffff1916149050919050565b600080611edf8361213b565b9050600073ffffffffffffffffffffffffffffffffffffffff168173ffffffffffffffffffffffffffffffffffffffff1603611f5257826040517f7e273289000000000000000000000000000000000000000000000000000000008152600401611f4991906134af565b60405180910390fd5b80915050919050565b60006004600083815260200190815260200160002060009054906101000a900473ffffffffffffffffffffffffffffffffffffffff169050919050565b600033905090565b611fad8383836001612905565b505050565b611fba611f98565b73ffffffffffffffffffffffffffffffffffffffff16611fd8611185565b73ffffffffffffffffffffffffffffffffffffffff161461203757611ffb611f98565b6040517f118cdaa700000000000000000000000000000000000000000000000000000000815260040161202e919061323f565b60405180910390fd5b565b600073ffffffffffffffffffffffffffffffffffffffff168273ffffffffffffffffffffffffffffffffffffffff16036120ab5760006040517f64a0ae920000000000000000000000000000000000000000000000000000000081526004016120a2919061323f565b60405180910390fd5b60006120bf83836120ba611f98565b612aca565b90508373ffffffffffffffffffffffffffffffffffffffff168173ffffffffffffffffffffffffffffffffffffffff1614612135578382826040517f64283d7b00000000000000000000000000000000000000000000000000000000815260040161212c93929190614788565b60405180910390fd5b50505050565b60006002600083815260200190815260200160002060009054906101000a900473ffffffffffffffffffffffffffffffffffffffff169050919050565b6000600c60008481526020019081526020016000209050600081600101549050600082600201548411156122585760006064600a846121b791906147bf565b6121c19190614830565b90506127106101f4826121d491906147bf565b6121de9190614830565b91508181846121ed9190614861565b6121f79190614895565b846001018190555061220886610e3e565b73ffffffffffffffffffffffffffffffffffffffff16867f9621ec81129e662768976f0ea58d74a293226ada50ebe59321283cc3e9ac5eb18460405161224e91906134af565b60405180910390a3505b83836007018190555081836001015461227191906148c9565b836008018190555080836009018190555060008360050160006101000a81548160ff021916908315150217905550847fb3dcc2a59a83c1266be1a329dc7867a514405dda77e9b46fafbe9534f9ec146a856040516122cf9190614958565b60405180910390a25050505050565b6000600660009054906101000a900473ffffffffffffffffffffffffffffffffffffffff16905081600660006101000a81548173ffffffffffffffffffffffffffffffffffffffff021916908373ffffffffffffffffffffffffffffffffffffffff1602179055508173ffffffffffffffffffffffffffffffffffffffff168173ffffffffffffffffffffffffffffffffffffffff167f8be0079c531659141344cd1fd0a4f28419497f9722a3daafe3b4186f6b6457e060405160405180910390a35050565b6000600c6000848152602001908152602001600020905081816006018190555060018160050160006101000a81548160ff021916908315150217905550827fb3dcc2a59a83c1266be1a329dc7867a514405dda77e9b46fafbe9534f9ec146a8360405161241191906149d2565b60405180910390a2505050565b600073ffffffffffffffffffffffffffffffffffffffff168273ffffffffffffffffffffffffffffffffffffffff160361248f57816040517f5b08ba18000000000000000000000000000000000000000000000000000000008152600401612486919061323f565b60405180910390fd5b80600560008573ffffffffffffffffffffffffffffffffffffffff1673ffffffffffffffffffffffffffffffffffffffff16815260200190815260200160002060008473ffffffffffffffffffffffffffffffffffffffff1673ffffffffffffffffffffffffffffffffffffffff16815260200190815260200160002060006101000a81548160ff0219169083151502179055508173ffffffffffffffffffffffffffffffffffffffff168373ffffffffffffffffffffffffffffffffffffffff167f17307eab39ab6107e8899845ad3d59bd9653f200f220920489ca2b5937696c318360405161258091906130ce565b60405180910390a3505050565b600073ffffffffffffffffffffffffffffffffffffffff168273ffffffffffffffffffffffffffffffffffffffff16036125ff5760006040517f64a0ae920000000000000000000000000000000000000000000000000000000081526004016125f6919061323f565b60405180910390fd5b600061260d83836000612aca565b9050600073ffffffffffffffffffffffffffffffffffffffff168173ffffffffffffffffffffffffffffffffffffffff16146126815760006040517f73c6ac6e000000000000000000000000000000000000000000000000000000008152600401612678919061323f565b60405180910390fd5b505050565b60008373ffffffffffffffffffffffffffffffffffffffff163b1115612830578273ffffffffffffffffffffffffffffffffffffffff1663150b7a02868685856040518563ffffffff1660e01b81526004016126e59493929190614a55565b6020604051808303816000875af192505050801561272157506040513d601f19601f8201168201806040525081019061271e9190614ab6565b60015b6127a5573d8060008114612751576040519150601f19603f3d011682016040523d82523d6000602084013e612756565b606091505b50600081510361279d57836040517f64a0ae92000000000000000000000000000000000000000000000000000000008152600401612794919061323f565b60405180910390fd5b805160208201fd5b63150b7a0260e01b7bffffffffffffffffffffffffffffffffffffffffffffffffffffffff1916817bffffffffffffffffffffffffffffffffffffffffffffffffffffffff19161461282e57836040517f64a0ae92000000000000000000000000000000000000000000000000000000008152600401612825919061323f565b60405180910390fd5b505b5050505050565b60606000600161284684612ce4565b01905060008167ffffffffffffffff81111561286557612864613580565b5b6040519080825280601f01601f1916602001820160405280156128975781602001600182028036833780820191505090505b509050600082602083010190505b6001156128fa578080600190039150507f3031323334353637383961626364656600000000000000000000000000000000600a86061a8153600a85816128ee576128ed614801565b5b049450600085036128a5575b819350505050919050565b808061293e5750600073ffffffffffffffffffffffffffffffffffffffff168273ffffffffffffffffffffffffffffffffffffffff1614155b15612a7257600061294e84611ed3565b9050600073ffffffffffffffffffffffffffffffffffffffff168373ffffffffffffffffffffffffffffffffffffffff16141580156129b957508273ffffffffffffffffffffffffffffffffffffffff168173ffffffffffffffffffffffffffffffffffffffff1614155b80156129cc57506129ca8184611d4f565b155b15612a0e57826040517fa9fbf51f000000000000000000000000000000000000000000000000000000008152600401612a05919061323f565b60405180910390fd5b8115612a7057838573ffffffffffffffffffffffffffffffffffffffff168273ffffffffffffffffffffffffffffffffffffffff167f8c5be1e5ebec7d5bd14f71427d1e84f3dd0314c0f7b2291e5b200ac8c7c3b92560405160405180910390a45b505b836004600085815260200190815260200160002060006101000a81548173ffffffffffffffffffffffffffffffffffffffff021916908373ffffffffffffffffffffffffffffffffffffffff16021790555050505050565b600080612ad68461213b565b9050600073ffffffffffffffffffffffffffffffffffffffff168373ffffffffffffffffffffffffffffffffffffffff1614612b1857612b17818486612e37565b5b600073ffffffffffffffffffffffffffffffffffffffff168173ffffffffffffffffffffffffffffffffffffffff1614612ba957612b5a600085600080612905565b6001600360008373ffffffffffffffffffffffffffffffffffffffff1673ffffffffffffffffffffffffffffffffffffffff168152602001908152602001600020600082825403925050819055505b600073ffffffffffffffffffffffffffffffffffffffff168573ffffffffffffffffffffffffffffffffffffffff1614612c2c576001600360008773ffffffffffffffffffffffffffffffffffffffff1673ffffffffffffffffffffffffffffffffffffffff168152602001908152602001600020600082825401925050819055505b846002600086815260200190815260200160002060006101000a81548173ffffffffffffffffffffffffffffffffffffffff021916908373ffffffffffffffffffffffffffffffffffffffff160217905550838573ffffffffffffffffffffffffffffffffffffffff168273ffffffffffffffffffffffffffffffffffffffff167fddf252ad1be2c89b69c2b068fc378daa952ba7f163c4a11628f55a4df523b3ef60405160405180910390a4809150509392505050565b600080600090507a184f03e93ff9f4daa797ed6e38ed64bf6a1f0100000000000000008310612d42577a184f03e93ff9f4daa797ed6e38ed64bf6a1f0100000000000000008381612d3857612d37614801565b5b0492506040810190505b6d04ee2d6d415b85acef81000000008310612d7f576d04ee2d6d415b85acef81000000008381612d7557612d74614801565b5b0492506020810190505b662386f26fc100008310612dae57662386f26fc100008381612da457612da3614801565b5b0492506010810190505b6305f5e1008310612dd7576305f5e1008381612dcd57612dcc614801565b5b0492506008810190505b6127108310612dfc576127108381612df257612df1614801565b5b0492506004810190505b60648310612e1f5760648381612e1557612e14614801565b5b0492506002810190505b600a8310612e2e576001810190505b80915050919050565b612e42838383612efb565b612ef657600073ffffffffffffffffffffffffffffffffffffffff168373ffffffffffffffffffffffffffffffffffffffff1603612eb757806040517f7e273289000000000000000000000000000000000000000000000000000000008152600401612eae91906134af565b60405180910390fd5b81816040517f177e802f000000000000000000000000000000000000000000000000000000008152600401612eed929190613c6a565b60405180910390fd5b505050565b60008073ffffffffffffffffffffffffffffffffffffffff168373ffffffffffffffffffffffffffffffffffffffff1614158015612fb357508273ffffffffffffffffffffffffffffffffffffffff168473ffffffffffffffffffffffffffffffffffffffff161480612f745750612f738484611d4f565b5b80612fb257508273ffffffffffffffffffffffffffffffffffffffff16612f9a83611f5b565b73ffffffffffffffffffffffffffffffffffffffff16145b5b90509392505050565b6040518061016001604052806000815260200160008152602001600081526020016000815260200160008152602001600015158152602001600015158152602001600081526020016000815260200160008152602001600081525090565b6000604051905090565b600080fd5b600080fd5b60007fffffffff0000000000000000000000000000000000000000000000000000000082169050919050565b6130638161302e565b811461306e57600080fd5b50565b6000813590506130808161305a565b92915050565b60006020828403121561309c5761309b613024565b5b60006130aa84828501613071565b91505092915050565b60008115159050919050565b6130c8816130b3565b82525050565b60006020820190506130e360008301846130bf565b92915050565b600081519050919050565b600082825260208201905092915050565b60005b83811015613123578082015181840152602081019050613108565b60008484015250505050565b6000601f19601f8301169050919050565b600061314b826130e9565b61315581856130f4565b9350613165818560208601613105565b61316e8161312f565b840191505092915050565b600060208201905081810360008301526131938184613140565b905092915050565b6000819050919050565b6131ae8161319b565b81146131b957600080fd5b50565b6000813590506131cb816131a5565b92915050565b6000602082840312156131e7576131e6613024565b5b60006131f5848285016131bc565b91505092915050565b600073ffffffffffffffffffffffffffffffffffffffff82169050919050565b6000613229826131fe565b9050919050565b6132398161321e565b82525050565b60006020820190506132546000830184613230565b92915050565b6132638161321e565b811461326e57600080fd5b50565b6000813590506132808161325a565b92915050565b6000806040838503121561329d5761329c613024565b5b60006132ab85828601613271565b92505060206132bc858286016131bc565b9150509250929050565b6000819050919050565b60006132eb6132e66132e1846131fe565b6132c6565b6131fe565b9050919050565b60006132fd826132d0565b9050919050565b600061330f826132f2565b9050919050565b61331f81613304565b82525050565b600060208201905061333a6000830184613316565b92915050565b60006020828403121561335657613355613024565b5b600061336484828501613271565b91505092915050565b60008060006060848603121561338657613385613024565b5b600061339486828701613271565b93505060206133a586828701613271565b92505060406133b6868287016131bc565b9150509250925092565b600081519050919050565b600082825260208201905092915050565b6000819050602082019050919050565b6133f58161319b565b82525050565b600061340783836133ec565b60208301905092915050565b6000602082019050919050565b600061342b826133c0565b61343581856133cb565b9350613440836133dc565b8060005b8381101561347157815161345888826133fb565b975061346383613413565b925050600181019050613444565b5085935050505092915050565b600060208201905081810360008301526134988184613420565b905092915050565b6134a98161319b565b82525050565b60006020820190506134c460008301846134a0565b92915050565b6134d3816130b3565b81146134de57600080fd5b50565b6000813590506134f0816134ca565b92915050565b6000806040838503121561350d5761350c613024565b5b600061351b85828601613271565b925050602061352c858286016134e1565b9150509250929050565b6000806040838503121561354d5761354c613024565b5b600061355b858286016131bc565b925050602061356c858286016131bc565b9150509250929050565b600080fd5b600080fd5b7f4e487b7100000000000000000000000000000000000000000000000000000000600052604160045260246000fd5b6135b88261312f565b810181811067ffffffffffffffff821117156135d7576135d6613580565b5b80604052505050565b60006135ea61301a565b90506135f682826135af565b919050565b600067ffffffffffffffff82111561361657613615613580565b5b61361f8261312f565b9050602081019050919050565b82818337600083830152505050565b600061364e613649846135fb565b6135e0565b90508281526020810184848401111561366a5761366961357b565b5b61367584828561362c565b509392505050565b600082601f83011261369257613691613576565b5b81356136a284826020860161363b565b91505092915050565b600080600080608085870312156136c5576136c4613024565b5b60006136d387828801613271565b94505060206136e487828801613271565b93505060406136f5878288016131bc565b925050606085013567ffffffffffffffff81111561371657613715613029565b5b6137228782880161367d565b91505092959194509250565b613737816130b3565b82525050565b6000819050919050565b6137508161373d565b82525050565b6101608201600082015161376d60008501826133ec565b50602082015161378060208501826133ec565b50604082015161379360408501826133ec565b5060608201516137a660608501826133ec565b5060808201516137b960808501826133ec565b5060a08201516137cc60a085018261372e565b5060c08201516137df60c085018261372e565b5060e08201516137f260e08501826133ec565b506101008201516138076101008501826133ec565b5061012082015161381c610120850182613747565b506101408201516138316101408501826133ec565b50505050565b60006101608201905061384d6000830184613756565b92915050565b61385c8161373d565b82525050565b600061016082019050613878600083018e6134a0565b613885602083018d6134a0565b613892604083018c6134a0565b61389f606083018b6134a0565b6138ac608083018a6134a0565b6138b960a08301896130bf565b6138c660c08301886130bf565b6138d360e08301876134a0565b6138e16101008301866134a0565b6138ef610120830185613853565b6138fd6101408301846134a0565b9c9b505050505050505050505050565b6000806000806080858703121561392757613926613024565b5b6000613935878288016131bc565b9450506020613946878288016131bc565b9350506040613957878288016131bc565b9250506060613968878288016131bc565b91505092959194509250565b6000806040838503121561398b5761398a613024565b5b600061399985828601613271565b92505060206139aa85828601613271565b9150509250929050565b7f4e487b7100000000000000000000000000000000000000000000000000000000600052602260045260246000fd5b600060028204905060018216806139fb57607f821691505b602082108103613a0e57613a0d6139b4565b5b50919050565b7f436c6f736520706f736974696f6e206265666f7265207472616e736665720000600082015250565b6000613a4a601e836130f4565b9150613a5582613a14565b602082019050919050565b60006020820190508181036000830152613a7981613a3d565b9050919050565b7f4e487b7100000000000000000000000000000000000000000000000000000000600052601160045260246000fd5b6000613aba8261319b565b91507fffffffffffffffffffffffffffffffffffffffffffffffffffffffffffffffff8203613aec57613aeb613a80565b5b600182019050919050565b7f4e487b7100000000000000000000000000000000000000000000000000000000600052603260045260246000fd5b7f4e6f74206f776e65720000000000000000000000000000000000000000000000600082015250565b6000613b5c6009836130f4565b9150613b6782613b26565b602082019050919050565b60006020820190508181036000830152613b8b81613b4f565b9050919050565b7f4465616374697661746520666972737400000000000000000000000000000000600082015250565b6000613bc86010836130f4565b9150613bd382613b92565b602082019050919050565b60006020820190508181036000830152613bf781613bbb565b9050919050565b7f4e6f2066756e6473000000000000000000000000000000000000000000000000600082015250565b6000613c346008836130f4565b9150613c3f82613bfe565b602082019050919050565b60006020820190508181036000830152613c6381613c27565b9050919050565b6000604082019050613c7f6000830185613230565b613c8c60208301846134a0565b9392505050565b600081519050613ca2816134ca565b92915050565b600060208284031215613cbe57613cbd613024565b5b6000613ccc84828501613c93565b91505092915050565b7f5472616e73666572206661696c65640000000000000000000000000000000000600082015250565b6000613d0b600f836130f4565b9150613d1682613cd5565b602082019050919050565b60006020820190508181036000830152613d3a81613cfe565b9050919050565b7f416c726561647920696e61637469766500000000000000000000000000000000600082015250565b6000613d776010836130f4565b9150613d8282613d41565b602082019050919050565b60006020820190508181036000830152613da681613d6a565b9050919050565b7f4e6f7420617574686f72697a6564000000000000000000000000000000000000600082015250565b6000613de3600e836130f4565b9150613dee82613dad565b602082019050919050565b60006020820190508181036000830152613e1281613dd6565b9050919050565b7f496e616374697665000000000000000000000000000000000000000000000000600082015250565b6000613e4f6008836130f4565b9150613e5a82613e19565b602082019050919050565b60006020820190508181036000830152613e7e81613e42565b9050919050565b600069ffffffffffffffffffff82169050919050565b613ea481613e85565b8114613eaf57600080fd5b50565b600081519050613ec181613e9b565b92915050565b613ed08161373d565b8114613edb57600080fd5b50565b600081519050613eed81613ec7565b92915050565b600081519050613f02816131a5565b92915050565b600080600080600060a08688031215613f2457613f23613024565b5b6000613f3288828901613eb2565b9550506020613f4388828901613ede565b9450506040613f5488828901613ef3565b9350506060613f6588828901613ef3565b9250506080613f7688828901613eb2565b9150509295509295909350565b7f496e76616c696420707269636500000000000000000000000000000000000000600082015250565b6000613fb9600d836130f4565b9150613fc482613f83565b602082019050919050565b60006020820190508181036000830152613fe881613fac565b9050919050565b7f537472617465677920696e616374697665000000000000000000000000000000600082015250565b60006140256011836130f4565b915061403082613fef565b602082019050919050565b6000602082019050818103600083015261405481614018565b9050919050565b60006060820190506140706000830186613230565b61407d6020830185613230565b61408a60408301846134a0565b949350505050565b7f4465706f736974206661696c6564000000000000000000000000000000000000600082015250565b60006140c8600e836130f4565b91506140d382614092565b602082019050919050565b600060208201905081810360008301526140f7816140bb565b9050919050565b600081905092915050565b7f646174613a6170706c69636174696f6e2f6a736f6e2c7b000000000000000000600082015250565b600061413f6017836140fe565b915061414a82614109565b601782019050919050565b7f226e616d65223a224175746f5472616465722053747261746567792023000000600082015250565b600061418b601d836140fe565b915061419682614155565b601d82019050919050565b60006141ac826130e9565b6141b681856140fe565b93506141c6818560208601613105565b80840191505092915050565b7f222c000000000000000000000000000000000000000000000000000000000000600082015250565b60006142086002836140fe565b9150614213826141d2565b600282019050919050565b7f226465736372697074696f6e223a2241636164656d6963206175746f6d61746560008201527f642074726164696e67207374726174656779202873696d756c6174696f6e292260208201527f2c00000000000000000000000000000000000000000000000000000000000000604082015250565b60006142a06041836140fe565b91506142ab8261421e565b604182019050919050565b7f2261747472696275746573223a5b000000000000000000000000000000000000600082015250565b60006142ec600e836140fe565b91506142f7826142b6565b600e82019050919050565b7f7b2274726169745f74797065223a22427579205072696365222c2276616c756560008201527f223a220000000000000000000000000000000000000000000000000000000000602082015250565b600061435e6023836140fe565b915061436982614302565b602382019050919050565b7f227d2c0000000000000000000000000000000000000000000000000000000000600082015250565b60006143aa6003836140fe565b91506143b582614374565b600382019050919050565b7f7b2274726169745f74797065223a2253656c6c205072696365222c2276616c7560008201527f65223a2200000000000000000000000000000000000000000000000000000000602082015250565b600061441c6024836140fe565b9150614427826143c0565b602482019050919050565b7f7b2274726169745f74797065223a22416374697665222c2276616c7565223a22600082015250565b60006144686020836140fe565b915061447382614432565b602082019050919050565b7f227d000000000000000000000000000000000000000000000000000000000000600082015250565b60006144b46002836140fe565b91506144bf8261447e565b600282019050919050565b7f5d7d000000000000000000000000000000000000000000000000000000000000600082015250565b60006145006002836140fe565b915061450b826144ca565b600282019050919050565b600061452182614132565b915061452c8261417e565b915061453882876141a1565b9150614543826141fb565b915061454e82614293565b9150614559826142df565b915061456482614351565b915061457082866141a1565b915061457b8261439d565b91506145868261440f565b915061459282856141a1565b915061459d8261439d565b91506145a88261445b565b91506145b482846141a1565b91506145bf826144a7565b91506145ca826144f3565b915081905095945050505050565b7f446f6573206e6f74206578697374000000000000000000000000000000000000600082015250565b600061460e600e836130f4565b9150614619826145d8565b602082019050919050565b6000602082019050818103600083015261463d81614601565b9050919050565b7f496e76616c696420627579207072696365000000000000000000000000000000600082015250565b600061467a6011836130f4565b915061468582614644565b602082019050919050565b600060208201905081810360008301526146a98161466d565b9050919050565b7f53656c6c206d757374206265203e206275790000000000000000000000000000600082015250565b60006146e66012836130f4565b91506146f1826146b0565b602082019050919050565b60006020820190508181036000830152614715816146d9565b9050919050565b7f53746f70206c6f7373206d757374206265203c20627579000000000000000000600082015250565b60006147526017836130f4565b915061475d8261471c565b602082019050919050565b6000602082019050818103600083015261478181614745565b9050919050565b600060608201905061479d6000830186613230565b6147aa60208301856134a0565b6147b76040830184613230565b949350505050565b60006147ca8261319b565b91506147d58361319b565b92508282026147e38161319b565b915082820484148315176147fa576147f9613a80565b5b5092915050565b7f4e487b7100000000000000000000000000000000000000000000000000000000600052601260045260246000fd5b600061483b8261319b565b91506148468361319b565b92508261485657614855614801565b5b828204905092915050565b600061486c8261319b565b91506148778361319b565b925082820190508082111561488f5761488e613a80565b5b92915050565b60006148a08261319b565b91506148ab8361319b565b92508282039050818111156148c3576148c2613a80565b5b92915050565b60006148d48261373d565b91506148df8361373d565b925082820390508181126000841216828213600085121516171561490657614905613a80565b5b92915050565b7f53454c4c00000000000000000000000000000000000000000000000000000000600082015250565b60006149426004836130f4565b915061494d8261490c565b602082019050919050565b6000604082019050818103600083015261497181614935565b905061498060208301846134a0565b92915050565b7f4255590000000000000000000000000000000000000000000000000000000000600082015250565b60006149bc6003836130f4565b91506149c782614986565b602082019050919050565b600060408201905081810360008301526149eb816149af565b90506149fa60208301846134a0565b92915050565b600081519050919050565b600082825260208201905092915050565b6000614a2782614a00565b614a318185614a0b565b9350614a41818560208601613105565b614a4a8161312f565b840191505092915050565b6000608082019050614a6a6000830187613230565b614a776020830186613230565b614a8460408301856134a0565b8181036060830152614a968184614a1c565b905095945050505050565b600081519050614ab08161305a565b92915050565b600060208284031215614acc57614acb613024565b5b6000614ada84828501614aa1565b9150509291505056fea2646970667358221220a6932714ceebc625d07b50f57426cd527c66bff59a197db6b7a131f340b14c3764736f6c63430008140033",
  "linkReferences": {},
  "deployedLinkReferences": {}
}