{
  "_format": "hh-sol-artifact-1",
  "contractName": "MockV3Aggregator",
  "sourceName": "contracts/MockV3Aggregator.sol",
  "abi": [
    {
      "inputs": [
        {
          "internalType": "uint8",
          "name": "_decimals",
          "type": "uint8"
        },
        {
          "internalType": "int256",
          "name": "_initialAnswer",
          "type": "int256"
        }
      ],
      "stateMutability": "nonpayable",
      "type": "constructor"
    },
    {
      "inputs": [],
      "name": "decimals",
      "outputs": [
        {
          "internalType": "uint8",
          "name": "",
          "type": "uint8"
        }
      ],
      "stateMutability": "view",
      "type": "function"
    },
    {
      "inputs": [
        {
          "internalType": "uint256",
          "name": "",
          "type": "uint256"
        }
      ],
      "name": "getAnswer",
      "outputs": [
        {
          "internalType": "int256",
          "name": "",
          "type": "int256"
        }
      ],
      "stateMutability": "view",
      "type": "function"
    },
    {
      "inputs": [
        {
          "internalType": "uint256",
          "name": "",
          "type": "uint256"
        }
      ],
      "name": "getStartedAt",
      "outputs": [
        {
          "internalType": "uint256",
          "name": "",
          "type": "uint256"
        }
      ],
      "stateMutability": "view",
      "type": "function"
    },
    {
      "inputs": [
        {
          "internalType": "uint256",
          "name": "",
          "type": "uint256"
        }
      ],
      "name": "getTimestamp",
      "outputs": [
        {
          "internalType": "uint256",
          "name": "",
          "type": "uint256"
        }
      ],
      "stateMutability": "view",
      "type": "function"
    },
    {
      "inputs": [],
      "name": "latestAnswer",
      "outputs": [
        {
          "internalType": "int256",
          "name": "",
          "type": "int256"
        }
      ],
      "stateMutability": "view",
      "type": "function"
    },
    {
      "inputs": [],
      "name": "latestRound",
      "outputs": [
        {
          "internalType": "uint256",
          "name": "",
          "type": "uint256"
        }
      ],
      "stateMutability": "view",
      "type": "function"
    },
    {
      "inputs": [],
      "name": "latestRoundData",
      "outputs": [
        {
          "internalType": "uint80",
          "name": "",
          "type": "uint80"
        },
        {
          "internalType": "int256",
          "name": "",
          "type": "int256"
        },
        {
          "internalType": "uint256",
          "name": "",
          "type": "uint256"
        },
        {
          "internalType": "uint256",
          "name": "",
          "type": "uint256"
        },
        {
          "internalType": "uint80",
          "name": "",
          "type": "uint80"
        }
      ],
      "stateMutability": "view",
      "type": "function"
    },
    {
      "inputs": [],
      "name": "latestTimestamp",
      "outputs": [
        {
          "internalType": "uint256",
          "name": "",
          "type": "uint256"
        }
      ],
      "stateMutability": "view",
      "type": "function"
    },
    {
      "inputs": [
        {
          "internalType": "int256",
          "name": "_answer",
          "type": "int256"
        }
      ],
      "name": "updateAnswer",
      "outputs": [],
      "stateMutability": "nonpayable",
      "type": "function"
    },
    {
      "inputs": [],
      "name": "version",
      "outputs": [
        {
          "internalType": "uint256",
          "name": "",
          "type": "uint256"
        }
      ],
      "stateMutability": "view",
      "type": "function"
    }
  ],
  "bytecode": "0x608060405234801561001057600080fd5b506040516107d43803806107d48339818101604052810190610032919061014d565b816000806101000a81548160ff021916908360ff16021790555061005b8161006260201b60201c565b505061020e565b806001819055504260028190555060036000815480929190610083906101c6565b919050555080600460006003548152602001908152602001600020819055504260056000600354815260200190815260200160002081905550426006600060035481526020019081526020016000208190555050565b600080fd5b600060ff82169050919050565b6100f4816100de565b81146100ff57600080fd5b50565b600081519050610111816100eb565b92915050565b6000819050919050565b61012a81610117565b811461013557600080fd5b50565b60008151905061014781610121565b92915050565b60008060408385031215610164576101636100d9565b5b600061017285828601610102565b925050602061018385828601610138565b9150509250929050565b7f4e487b7100000000000000000000000000000000000000000000000000000000600052601160045260246000fd5b6000819050919050565b60006101d1826101bc565b91507fffffffffffffffffffffffffffffffffffffffffffffffffffffffffffffffff82036102035761020261018d565b5b600182019050919050565b6105b78061021d6000396000f3fe608060405234801561001057600080fd5b506004361061009e5760003560e01c8063a87a20ce11610066578063a87a20ce14610139578063ac0de66f14610155578063b5ab58dc14610185578063b633620c146101b5578063feaf968c146101e55761009e565b8063313ce567146100a357806350d25bcd146100c157806354fd4d50146100df578063668a0f02146100fd5780638205bf6a1461011b575b600080fd5b6100ab610207565b6040516100b89190610358565b60405180910390f35b6100c9610218565b6040516100d6919061038c565b60405180910390f35b6100e761021e565b6040516100f491906103c0565b60405180910390f35b610105610223565b60405161011291906103c0565b60405180910390f35b610123610229565b60405161013091906103c0565b60405180910390f35b610153600480360381019061014e919061040c565b61022f565b005b61016f600480360381019061016a9190610465565b6102a6565b60405161017c91906103c0565b60405180910390f35b61019f600480360381019061019a9190610465565b6102be565b6040516101ac919061038c565b60405180910390f35b6101cf60048036038101906101ca9190610465565b6102d6565b6040516101dc91906103c0565b60405180910390f35b6101ed6102ee565b6040516101fe9594939291906104b7565b60405180910390f35b60008054906101000a900460ff1681565b60015481565b600081565b60035481565b60025481565b80600181905550426002819055506003600081548092919061025090610539565b919050555080600460006003548152602001908152602001600020819055504260056000600354815260200190815260200160002081905550426006600060035481526020019081526020016000208190555050565b60066020528060005260406000206000915090505481565b60046020528060005260406000206000915090505481565b60056020528060005260406000206000915090505481565b60008060008060006003546001546006600060035481526020019081526020016000205460056000600354815260200190815260200160002054600354945094509450945094509091929394565b600060ff82169050919050565b6103528161033c565b82525050565b600060208201905061036d6000830184610349565b92915050565b6000819050919050565b61038681610373565b82525050565b60006020820190506103a1600083018461037d565b92915050565b6000819050919050565b6103ba816103a7565b82525050565b60006020820190506103d560008301846103b1565b92915050565b600080fd5b6103e981610373565b81146103f457600080fd5b50565b600081359050610406816103e0565b92915050565b600060208284031215610422576104216103db565b5b6000610430848285016103f7565b91505092915050565b610442816103a7565b811461044d57600080fd5b50565b60008135905061045f81610439565b92915050565b60006020828403121561047b5761047a6103db565b5b600061048984828501610450565b91505092915050565b600069ffffffffffffffffffff82169050919050565b6104b181610492565b82525050565b600060a0820190506104cc60008301886104a8565b6104d9602083018761037d565b6104e660408301866103b1565b6104f360608301856103b1565b61050060808301846104a8565b9695505050505050565b7f4e487b7100000000000000000000000000000000000000000000000000000000600052601160045260246000fd5b6000610544826103a7565b91507fffffffffffffffffffffffffffffffffffffffffffffffffffffffffffffffff82036105765761057561050a565b5b60018201905091905056fea26469706673582212206199acce550856b7722e59bc806fe3376759e8dfa0d55179c5310bed3aed1b1764736f6c63430008140033",
  "linkReferences": {},
  "deployedLinkReferences": {}
}